{
    "_format": "hh-sol-artifact-1",
    "contractName": "NFTMarket",
    "sourceName": "contracts/NFTMarket.sol",
    "abi": [
        {
            "inputs": [],
            "stateMutability": "nonpayable",
            "type": "constructor"
        },
        {
            "inputs": [],
            "name": "alreadyRegisterd",
            "type": "error"
        },
        {
            "inputs": [],
            "name": "incorrectAmount",
            "type": "error"
        },
        {
            "inputs": [],
            "name": "invalidTokenID",
            "type": "error"
        },
        {
            "inputs": [],
            "name": "notForSale",
            "type": "error"
        },
        {
            "inputs": [],
            "name": "notRegisterdAsCreator",
            "type": "error"
        },
        {
            "inputs": [],
            "name": "notTheOwner",
            "type": "error"
        },
        {
            "inputs": [],
            "name": "zeroBalance",
            "type": "error"
        },
        {
            "anonymous": false,
            "inputs": [
                {
                    "indexed": true,
                    "internalType": "address",
                    "name": "owner",
                    "type": "address"
                },
                {
                    "indexed": true,
                    "internalType": "address",
                    "name": "approved",
                    "type": "address"
                },
                {
                    "indexed": true,
                    "internalType": "uint256",
                    "name": "tokenId",
                    "type": "uint256"
                }
            ],
            "name": "Approval",
            "type": "event"
        },
        {
            "anonymous": false,
            "inputs": [
                {
                    "indexed": true,
                    "internalType": "address",
                    "name": "owner",
                    "type": "address"
                },
                {
                    "indexed": true,
                    "internalType": "address",
                    "name": "operator",
                    "type": "address"
                },
                {
                    "indexed": false,
                    "internalType": "bool",
                    "name": "approved",
                    "type": "bool"
                }
            ],
            "name": "ApprovalForAll",
            "type": "event"
        },
        {
            "anonymous": false,
            "inputs": [
                {
                    "indexed": false,
                    "internalType": "uint256",
                    "name": "_fromTokenId",
                    "type": "uint256"
                },
                {
                    "indexed": false,
                    "internalType": "uint256",
                    "name": "_toTokenId",
                    "type": "uint256"
                }
            ],
            "name": "BatchMetadataUpdate",
            "type": "event"
        },
        {
            "anonymous": false,
            "inputs": [
                {
                    "indexed": false,
                    "internalType": "uint256",
                    "name": "_tokenId",
                    "type": "uint256"
                }
            ],
            "name": "MetadataUpdate",
            "type": "event"
        },
        {
            "anonymous": false,
            "inputs": [
                {
                    "indexed": false,
                    "internalType": "uint256",
                    "name": "tokenID",
                    "type": "uint256"
                },
                {
                    "indexed": false,
                    "internalType": "address",
                    "name": "from",
                    "type": "address"
                },
                {
                    "indexed": false,
                    "internalType": "address",
                    "name": "to",
                    "type": "address"
                },
                {
                    "indexed": false,
                    "internalType": "string",
                    "name": "tokenURI",
                    "type": "string"
                },
                {
                    "indexed": false,
                    "internalType": "uint256",
                    "name": "price",
                    "type": "uint256"
                }
            ],
            "name": "NFTTransfer",
            "type": "event"
        },
        {
            "anonymous": false,
            "inputs": [
                {
                    "indexed": true,
                    "internalType": "address",
                    "name": "from",
                    "type": "address"
                },
                {
                    "indexed": true,
                    "internalType": "address",
                    "name": "to",
                    "type": "address"
                },
                {
                    "indexed": true,
                    "internalType": "uint256",
                    "name": "tokenId",
                    "type": "uint256"
                }
            ],
            "name": "Transfer",
            "type": "event"
        },
        {
            "inputs": [
                {
                    "internalType": "string",
                    "name": "_name",
                    "type": "string"
                }
            ],
            "name": "addCreater",
            "outputs": [],
            "stateMutability": "nonpayable",
            "type": "function"
        },
        {
            "inputs": [
                {
                    "internalType": "address",
                    "name": "to",
                    "type": "address"
                },
                {
                    "internalType": "uint256",
                    "name": "tokenId",
                    "type": "uint256"
                }
            ],
            "name": "approve",
            "outputs": [],
            "stateMutability": "nonpayable",
            "type": "function"
        },
        {
            "inputs": [
                {
                    "internalType": "address",
                    "name": "owner",
                    "type": "address"
                }
            ],
            "name": "balanceOf",
            "outputs": [
                {
                    "internalType": "uint256",
                    "name": "",
                    "type": "uint256"
                }
            ],
            "stateMutability": "view",
            "type": "function"
        },
        {
            "inputs": [
                {
                    "internalType": "string",
                    "name": "_tokenURI",
                    "type": "string"
                },
                {
                    "internalType": "uint256",
                    "name": "_price",
                    "type": "uint256"
                }
            ],
            "name": "createNFT",
            "outputs": [],
            "stateMutability": "nonpayable",
            "type": "function"
        },
        {
            "inputs": [],
            "name": "getAllCreators",
            "outputs": [
                {
                    "components": [
                        {
                            "internalType": "uint256",
                            "name": "creatorId",
                            "type": "uint256"
                        },
                        {
                            "internalType": "address",
                            "name": "creatorAddress",
                            "type": "address"
                        },
                        {
                            "internalType": "string",
                            "name": "name",
                            "type": "string"
                        },
                        {
                            "internalType": "uint256",
                            "name": "ItemCount",
                            "type": "uint256"
                        },
                        {
                            "internalType": "uint256",
                            "name": "totalSells",
                            "type": "uint256"
                        }
                    ],
                    "internalType": "struct Creator[]",
                    "name": "",
                    "type": "tuple[]"
                }
            ],
            "stateMutability": "view",
            "type": "function"
        },
        {
            "inputs": [],
            "name": "getAllNFTs",
            "outputs": [
                {
                    "components": [
                        {
                            "internalType": "uint256",
                            "name": "tokenId",
                            "type": "uint256"
                        },
                        {
                            "internalType": "address payable",
                            "name": "creator",
                            "type": "address"
                        },
                        {
                            "internalType": "address payable",
                            "name": "owner",
                            "type": "address"
                        },
                        {
                            "internalType": "address payable",
                            "name": "lastSeller",
                            "type": "address"
                        },
                        {
                            "internalType": "string",
                            "name": "tokenURI",
                            "type": "string"
                        },
                        {
                            "internalType": "uint256",
                            "name": "price",
                            "type": "uint256"
                        },
                        {
                            "internalType": "bool",
                            "name": "sold",
                            "type": "bool"
                        }
                    ],
                    "internalType": "struct MarketItem[]",
                    "name": "",
                    "type": "tuple[]"
                }
            ],
            "stateMutability": "view",
            "type": "function"
        },
        {
            "inputs": [
                {
                    "internalType": "uint256",
                    "name": "tokenId",
                    "type": "uint256"
                }
            ],
            "name": "getApproved",
            "outputs": [
                {
                    "internalType": "address",
                    "name": "",
                    "type": "address"
                }
            ],
            "stateMutability": "view",
            "type": "function"
        },
        {
            "inputs": [],
            "name": "getBalance",
            "outputs": [
                {
                    "internalType": "uint256",
                    "name": "",
                    "type": "uint256"
                }
            ],
            "stateMutability": "view",
            "type": "function"
        },
        {
            "inputs": [
                {
                    "internalType": "uint256",
                    "name": "",
                    "type": "uint256"
                }
            ],
            "name": "idToMarketItem",
            "outputs": [
                {
                    "internalType": "uint256",
                    "name": "tokenId",
                    "type": "uint256"
                },
                {
                    "internalType": "address payable",
                    "name": "creator",
                    "type": "address"
                },
                {
                    "internalType": "address payable",
                    "name": "owner",
                    "type": "address"
                },
                {
                    "internalType": "address payable",
                    "name": "lastSeller",
                    "type": "address"
                },
                {
                    "internalType": "string",
                    "name": "tokenURI",
                    "type": "string"
                },
                {
                    "internalType": "uint256",
                    "name": "price",
                    "type": "uint256"
                },
                {
                    "internalType": "bool",
                    "name": "sold",
                    "type": "bool"
                }
            ],
            "stateMutability": "view",
            "type": "function"
        },
        {
            "inputs": [
                {
                    "internalType": "address",
                    "name": "owner",
                    "type": "address"
                },
                {
                    "internalType": "address",
                    "name": "operator",
                    "type": "address"
                }
            ],
            "name": "isApprovedForAll",
            "outputs": [
                {
                    "internalType": "bool",
                    "name": "",
                    "type": "bool"
                }
            ],
            "stateMutability": "view",
            "type": "function"
        },
        {
            "inputs": [],
            "name": "name",
            "outputs": [
                {
                    "internalType": "string",
                    "name": "",
                    "type": "string"
                }
            ],
            "stateMutability": "view",
            "type": "function"
        },
        {
            "inputs": [
                {
                    "internalType": "uint256",
                    "name": "tokenId",
                    "type": "uint256"
                }
            ],
            "name": "ownerOf",
            "outputs": [
                {
                    "internalType": "address",
                    "name": "",
                    "type": "address"
                }
            ],
            "stateMutability": "view",
            "type": "function"
        },
        {
            "inputs": [
                {
                    "internalType": "uint256",
                    "name": "_tokenID",
                    "type": "uint256"
                }
            ],
            "name": "purchaseNFT",
            "outputs": [],
            "stateMutability": "payable",
            "type": "function"
        },
        {
            "inputs": [
                {
                    "internalType": "uint256",
                    "name": "_tokenID",
                    "type": "uint256"
                }
            ],
            "name": "rePurchaseNFT",
            "outputs": [],
            "stateMutability": "payable",
            "type": "function"
        },
        {
            "inputs": [
                {
                    "internalType": "uint256",
                    "name": "_tokenID",
                    "type": "uint256"
                },
                {
                    "internalType": "uint256",
                    "name": "_price",
                    "type": "uint256"
                }
            ],
            "name": "resellNFT",
            "outputs": [],
            "stateMutability": "nonpayable",
            "type": "function"
        },
        {
            "inputs": [
                {
                    "internalType": "address",
                    "name": "from",
                    "type": "address"
                },
                {
                    "internalType": "address",
                    "name": "to",
                    "type": "address"
                },
                {
                    "internalType": "uint256",
                    "name": "tokenId",
                    "type": "uint256"
                }
            ],
            "name": "safeTransferFrom",
            "outputs": [],
            "stateMutability": "nonpayable",
            "type": "function"
        },
        {
            "inputs": [
                {
                    "internalType": "address",
                    "name": "from",
                    "type": "address"
                },
                {
                    "internalType": "address",
                    "name": "to",
                    "type": "address"
                },
                {
                    "internalType": "uint256",
                    "name": "tokenId",
                    "type": "uint256"
                },
                {
                    "internalType": "bytes",
                    "name": "data",
                    "type": "bytes"
                }
            ],
            "name": "safeTransferFrom",
            "outputs": [],
            "stateMutability": "nonpayable",
            "type": "function"
        },
        {
            "inputs": [
                {
                    "internalType": "address",
                    "name": "operator",
                    "type": "address"
                },
                {
                    "internalType": "bool",
                    "name": "approved",
                    "type": "bool"
                }
            ],
            "name": "setApprovalForAll",
            "outputs": [],
            "stateMutability": "nonpayable",
            "type": "function"
        },
        {
            "inputs": [
                {
                    "internalType": "bytes4",
                    "name": "interfaceId",
                    "type": "bytes4"
                }
            ],
            "name": "supportsInterface",
            "outputs": [
                {
                    "internalType": "bool",
                    "name": "",
                    "type": "bool"
                }
            ],
            "stateMutability": "view",
            "type": "function"
        },
        {
            "inputs": [],
            "name": "symbol",
            "outputs": [
                {
                    "internalType": "string",
                    "name": "",
                    "type": "string"
                }
            ],
            "stateMutability": "view",
            "type": "function"
        },
        {
            "inputs": [
                {
                    "internalType": "uint256",
                    "name": "tokenId",
                    "type": "uint256"
                }
            ],
            "name": "tokenURI",
            "outputs": [
                {
                    "internalType": "string",
                    "name": "",
                    "type": "string"
                }
            ],
            "stateMutability": "view",
            "type": "function"
        },
        {
            "inputs": [
                {
                    "internalType": "address",
                    "name": "from",
                    "type": "address"
                },
                {
                    "internalType": "address",
                    "name": "to",
                    "type": "address"
                },
                {
                    "internalType": "uint256",
                    "name": "tokenId",
                    "type": "uint256"
                }
            ],
            "name": "transferFrom",
            "outputs": [],
            "stateMutability": "nonpayable",
            "type": "function"
        },
        {
            "inputs": [],
            "name": "withdrawFunds",
            "outputs": [
                {
                    "internalType": "bool",
                    "name": "",
                    "type": "bool"
                }
            ],
            "stateMutability": "payable",
            "type": "function"
        }
    ],
    "bytecode": "0x60a06040523480156200001157600080fd5b506040518060400160405280600481526020017f4e465473000000000000000000000000000000000000000000000000000000008152506040518060400160405280600381526020017f4e46540000000000000000000000000000000000000000000000000000000000815250816000908051906020019062000096929190620000ec565b508060019080519060200190620000af929190620000ec565b5050503373ffffffffffffffffffffffffffffffffffffffff1660808173ffffffffffffffffffffffffffffffffffffffff168152505062000201565b828054620000fa90620001cb565b90600052602060002090601f0160209004810192826200011e57600085556200016a565b82601f106200013957805160ff19168380011785556200016a565b828001600101855582156200016a579182015b82811115620001695782518255916020019190600101906200014c565b5b5090506200017991906200017d565b5090565b5b80821115620001985760008160009055506001016200017e565b5090565b7f4e487b7100000000000000000000000000000000000000000000000000000000600052602260045260246000fd5b60006002820490506001821680620001e457607f821691505b60208210811415620001fb57620001fa6200019c565b5b50919050565b60805161466b6200021a6000396000505061466b6000f3fe6080604052600436106101405760003560e01c806370a08231116100b6578063b88d4fde1161006f578063b88d4fde1461042f578063c87b56dd14610458578063e0391b0914610495578063e61a70c0146104c0578063e985e9c514610503578063f97fac4d1461054057610140565b806370a08231146103305780637ac7b6941461036d57806395d89b4114610389578063a22cb465146103b4578063a2d1a0a0146103dd578063ac3dfc731461040657610140565b8063150bde0311610108578063150bde031461023e57806323b872dd1461025a57806324600fc31461028357806326829155146102a157806342842e0e146102ca5780636352211e146102f357610140565b806301ffc9a71461014557806306fdde0314610182578063081812fc146101ad578063095ea7b3146101ea57806312065fe014610213575b600080fd5b34801561015157600080fd5b5061016c600480360381019061016791906131b9565b61056b565b6040516101799190613201565b60405180910390f35b34801561018e57600080fd5b506101976105cc565b6040516101a491906132b5565b60405180910390f35b3480156101b957600080fd5b506101d460048036038101906101cf919061330d565b61065e565b6040516101e1919061337b565b60405180910390f35b3480156101f657600080fd5b50610211600480360381019061020c91906133c2565b6106a4565b005b34801561021f57600080fd5b506102286107bc565b6040516102359190613411565b60405180910390f35b6102586004803603810190610253919061330d565b610803565b005b34801561026657600080fd5b50610281600480360381019061027c919061342c565b610aef565b005b61028b610b4f565b6040516102989190613201565b60405180910390f35b3480156102ad57600080fd5b506102c860048036038101906102c391906134e4565b610c96565b005b3480156102d657600080fd5b506102f160048036038101906102ec919061342c565b610f25565b005b3480156102ff57600080fd5b5061031a6004803603810190610315919061330d565b610f45565b604051610327919061337b565b60405180910390f35b34801561033c57600080fd5b5061035760048036038101906103529190613544565b610fcc565b6040516103649190613411565b60405180910390f35b6103876004803603810190610382919061330d565b611084565b005b34801561039557600080fd5b5061039e6113b0565b6040516103ab91906132b5565b60405180910390f35b3480156103c057600080fd5b506103db60048036038101906103d6919061359d565b611442565b005b3480156103e957600080fd5b5061040460048036038101906103ff91906135dd565b611458565b005b34801561041257600080fd5b5061042d6004803603810190610428919061362a565b6115d5565b005b34801561043b57600080fd5b506104566004803603810190610451919061379a565b6117b1565b005b34801561046457600080fd5b5061047f600480360381019061047a919061330d565b611813565b60405161048c91906132b5565b60405180910390f35b3480156104a157600080fd5b506104aa611926565b6040516104b79190613a04565b60405180910390f35b3480156104cc57600080fd5b506104e760048036038101906104e2919061330d565b611bc0565b6040516104fa9796959493929190613a35565b60405180910390f35b34801561050f57600080fd5b5061052a60048036038101906105259190613aab565b611cf7565b6040516105379190613201565b60405180910390f35b34801561054c57600080fd5b50610555611d8b565b6040516105629190613c32565b60405180910390f35b6000634906490660e01b7bffffffffffffffffffffffffffffffffffffffffffffffffffffffff1916827bffffffffffffffffffffffffffffffffffffffffffffffffffffffff191614806105c557506105c482611f68565b5b9050919050565b6060600080546105db90613c83565b80601f016020809104026020016040519081016040528092919081815260200182805461060790613c83565b80156106545780601f1061062957610100808354040283529160200191610654565b820191906000526020600020905b81548152906001019060200180831161063757829003601f168201915b5050505050905090565b60006106698261204a565b6004600083815260200190815260200160002060009054906101000a900473ffffffffffffffffffffffffffffffffffffffff169050919050565b60006106af82610f45565b90508073ffffffffffffffffffffffffffffffffffffffff168373ffffffffffffffffffffffffffffffffffffffff161415610720576040517f08c379a000000000000000000000000000000000000000000000000000000000815260040161071790613d27565b60405180910390fd5b8073ffffffffffffffffffffffffffffffffffffffff1661073f612095565b73ffffffffffffffffffffffffffffffffffffffff16148061076e575061076d81610768612095565b611cf7565b5b6107ad576040517f08c379a00000000000000000000000000000000000000000000000000000000081526004016107a490613db9565b60405180910390fd5b6107b7838361209d565b505050565b6000600a60003373ffffffffffffffffffffffffffffffffffffffff1673ffffffffffffffffffffffffffffffffffffffff16815260200190815260200160002054905090565b60008111801561081c57506108186007612156565b8111155b610852576040517ff03f4a8f00000000000000000000000000000000000000000000000000000000815260040160405180910390fd5b6000600b600083815260200190815260200160002090508060060160009054906101000a900460ff16156108b2576040517f0ba062b500000000000000000000000000000000000000000000000000000000815260040160405180910390fd5b806005015434146108ef576040517ff2b3003700000000000000000000000000000000000000000000000000000000815260040160405180910390fd5b6108f93383612164565b61098f8282600401805461090c90613c83565b80601f016020809104026020016040519081016040528092919081815260200182805461093890613c83565b80156109855780601f1061095a57610100808354040283529160200191610985565b820191906000526020600020905b81548152906001019060200180831161096857829003601f168201915b5050505050612382565b33600b600084815260200190815260200160002060020160006101000a81548173ffffffffffffffffffffffffffffffffffffffff021916908373ffffffffffffffffffffffffffffffffffffffff1602179055506001600b600084815260200190815260200160002060060160006101000a81548160ff021916908315150217905550600160096000610a468460010160009054906101000a900473ffffffffffffffffffffffffffffffffffffffff1661242d565b81526020019081526020016000206004016000828254610a669190613e08565b925050819055508060050154600a60008360010160009054906101000a900473ffffffffffffffffffffffffffffffffffffffff1673ffffffffffffffffffffffffffffffffffffffff1673ffffffffffffffffffffffffffffffffffffffff1681526020019081526020016000206000828254610ae49190613e08565b925050819055505050565b610b00610afa612095565b826124f2565b610b3f576040517f08c379a0000000000000000000000000000000000000000000000000000000008152600401610b3690613ed0565b60405180910390fd5b610b4a838383612587565b505050565b600080600a60003373ffffffffffffffffffffffffffffffffffffffff1673ffffffffffffffffffffffffffffffffffffffff1681526020019081526020016000205490506000811415610bcf576040517f4ed9af4c00000000000000000000000000000000000000000000000000000000815260040160405180910390fd5b60003373ffffffffffffffffffffffffffffffffffffffff1682604051610bf590613f21565b60006040518083038185875af1925050503d8060008114610c32576040519150601f19603f3d011682016040523d82523d6000602084013e610c37565b606091505b50509050600115158115151415610c8e576000600a60003373ffffffffffffffffffffffffffffffffffffffff1673ffffffffffffffffffffffffffffffffffffffff168152602001908152602001600020819055505b809250505090565b6000610ca13361242d565b1415610cd9576040517f6263eeee00000000000000000000000000000000000000000000000000000000815260040160405180910390fd5b610ce36007612881565b6000610cef6007612156565b90506040518060e001604052808281526020013373ffffffffffffffffffffffffffffffffffffffff1681526020013073ffffffffffffffffffffffffffffffffffffffff1681526020013373ffffffffffffffffffffffffffffffffffffffff16815260200185858080601f016020809104026020016040519081016040528093929190818152602001838380828437600081840152601f19601f82011690508083019250505050505050815260200183815260200160001515815250600b60008381526020019081526020016000206000820151816000015560208201518160010160006101000a81548173ffffffffffffffffffffffffffffffffffffffff021916908373ffffffffffffffffffffffffffffffffffffffff16021790555060408201518160020160006101000a81548173ffffffffffffffffffffffffffffffffffffffff021916908373ffffffffffffffffffffffffffffffffffffffff16021790555060608201518160030160006101000a81548173ffffffffffffffffffffffffffffffffffffffff021916908373ffffffffffffffffffffffffffffffffffffffff1602179055506080820151816004019080519060200190610ebb929190612fe4565b5060a0820151816005015560c08201518160060160006101000a81548160ff021916908315150217905550905050600160096000610ef83361242d565b81526020019081526020016000206003016000828254610f189190613e08565b9250508190555050505050565b610f40838383604051806020016040528060008152506117b1565b505050565b600080610f5183612897565b9050600073ffffffffffffffffffffffffffffffffffffffff168173ffffffffffffffffffffffffffffffffffffffff161415610fc3576040517f08c379a0000000000000000000000000000000000000000000000000000000008152600401610fba90613f82565b60405180910390fd5b80915050919050565b60008073ffffffffffffffffffffffffffffffffffffffff168273ffffffffffffffffffffffffffffffffffffffff16141561103d576040517f08c379a000000000000000000000000000000000000000000000000000000000815260040161103490614014565b60405180910390fd5b600360008373ffffffffffffffffffffffffffffffffffffffff1673ffffffffffffffffffffffffffffffffffffffff168152602001908152602001600020549050919050565b60008111801561109d57506110996007612156565b8111155b6110d3576040517ff03f4a8f00000000000000000000000000000000000000000000000000000000815260040160405180910390fd5b6000600b600083815260200190815260200160002090508060030160009054906101000a900473ffffffffffffffffffffffffffffffffffffffff1673ffffffffffffffffffffffffffffffffffffffff168160010160009054906101000a900473ffffffffffffffffffffffffffffffffffffffff1673ffffffffffffffffffffffffffffffffffffffff161415611198576040517f0ba062b500000000000000000000000000000000000000000000000000000000815260040160405180910390fd5b806005015434146111d5576040517ff2b3003700000000000000000000000000000000000000000000000000000000815260040160405180910390fd5b6001600b600084815260200190815260200160002060060160006101000a81548160ff02191690831515021790555033600b600084815260200190815260200160002060020160006101000a81548173ffffffffffffffffffffffffffffffffffffffff021916908373ffffffffffffffffffffffffffffffffffffffff160217905550611264303384612587565b61128f6064611281600584600501546128d490919063ffffffff16565b6128ea90919063ffffffff16565b600a60008360010160009054906101000a900473ffffffffffffffffffffffffffffffffffffffff1673ffffffffffffffffffffffffffffffffffffffff1673ffffffffffffffffffffffffffffffffffffffff16815260200190815260200160002060008282546113019190613e08565b925050819055506113336064611325605f84600501546128d490919063ffffffff16565b6128ea90919063ffffffff16565b600a60008360030160009054906101000a900473ffffffffffffffffffffffffffffffffffffffff1673ffffffffffffffffffffffffffffffffffffffff1673ffffffffffffffffffffffffffffffffffffffff16815260200190815260200160002060008282546113a59190613e08565b925050819055505050565b6060600180546113bf90613c83565b80601f01602080910402602001604051908101604052809291908181526020018280546113eb90613c83565b80156114385780601f1061140d57610100808354040283529160200191611438565b820191906000526020600020905b81548152906001019060200180831161141b57829003601f168201915b5050505050905090565b61145461144d612095565b8383612900565b5050565b60006114633361242d565b1461149a576040517fc43e53e400000000000000000000000000000000000000000000000000000000815260040160405180910390fd5b6114a46008612881565b6040518060a001604052806114b96008612156565b81526020013373ffffffffffffffffffffffffffffffffffffffff16815260200183838080601f016020809104026020016040519081016040528093929190818152602001838380828437600081840152601f19601f8201169050808301925050505050505081526020016000815260200160008152506009600061153e6008612156565b81526020019081526020016000206000820151816000015560208201518160010160006101000a81548173ffffffffffffffffffffffffffffffffffffffff021916908373ffffffffffffffffffffffffffffffffffffffff16021790555060408201518160020190805190602001906115b9929190612fe4565b5060608201518160030155608082015181600401559050505050565b6000821180156115ee57506115ea6007612156565b8211155b611624576040517ff03f4a8f00000000000000000000000000000000000000000000000000000000815260040160405180910390fd5b6000600b600084815260200190815260200160002090503373ffffffffffffffffffffffffffffffffffffffff1661165b84610f45565b73ffffffffffffffffffffffffffffffffffffffff16146116a8576040517fe28485f600000000000000000000000000000000000000000000000000000000815260040160405180910390fd5b6000600b600085815260200190815260200160002060060160006101000a81548160ff02191690831515021790555081600b60008581526020019081526020016000206005018190555033600b600085815260200190815260200160002060030160006101000a81548173ffffffffffffffffffffffffffffffffffffffff021916908373ffffffffffffffffffffffffffffffffffffffff16021790555060016009600061177a8460010160009054906101000a900473ffffffffffffffffffffffffffffffffffffffff1661242d565b8152602001908152602001600020600401600082825461179a9190613e08565b925050819055506117ac333085612587565b505050565b6117c26117bc612095565b836124f2565b611801576040517f08c379a00000000000000000000000000000000000000000000000000000000081526004016117f890613ed0565b60405180910390fd5b61180d84848484612a6d565b50505050565b606061181e8261204a565b600060066000848152602001908152602001600020805461183e90613c83565b80601f016020809104026020016040519081016040528092919081815260200182805461186a90613c83565b80156118b75780601f1061188c576101008083540402835291602001916118b7565b820191906000526020600020905b81548152906001019060200180831161189a57829003601f168201915b5050505050905060006118c8612ac9565b90506000815114156118de578192505050611921565b6000825111156119135780826040516020016118fb929190614070565b60405160208183030381529060405292505050611921565b61191c84612ae0565b925050505b919050565b606060006119346007612156565b905060008167ffffffffffffffff8111156119525761195161366f565b5b60405190808252806020026020018201604052801561198b57816020015b61197861306a565b8152602001906001900390816119705790505b50905060005b82811015611bb757600b60006001836119aa9190613e08565b81526020019081526020016000206040518060e0016040529081600082015481526020016001820160009054906101000a900473ffffffffffffffffffffffffffffffffffffffff1673ffffffffffffffffffffffffffffffffffffffff1673ffffffffffffffffffffffffffffffffffffffff1681526020016002820160009054906101000a900473ffffffffffffffffffffffffffffffffffffffff1673ffffffffffffffffffffffffffffffffffffffff1673ffffffffffffffffffffffffffffffffffffffff1681526020016003820160009054906101000a900473ffffffffffffffffffffffffffffffffffffffff1673ffffffffffffffffffffffffffffffffffffffff1673ffffffffffffffffffffffffffffffffffffffff168152602001600482018054611adf90613c83565b80601f0160208091040260200160405190810160405280929190818152602001828054611b0b90613c83565b8015611b585780601f10611b2d57610100808354040283529160200191611b58565b820191906000526020600020905b815481529060010190602001808311611b3b57829003601f168201915b50505050508152602001600582015481526020016006820160009054906101000a900460ff161515151581525050828281518110611b9957611b98614094565b5b60200260200101819052508080611baf906140c3565b915050611991565b50809250505090565b600b6020528060005260406000206000915090508060000154908060010160009054906101000a900473ffffffffffffffffffffffffffffffffffffffff16908060020160009054906101000a900473ffffffffffffffffffffffffffffffffffffffff16908060030160009054906101000a900473ffffffffffffffffffffffffffffffffffffffff1690806004018054611c5b90613c83565b80601f0160208091040260200160405190810160405280929190818152602001828054611c8790613c83565b8015611cd45780601f10611ca957610100808354040283529160200191611cd4565b820191906000526020600020905b815481529060010190602001808311611cb757829003601f168201915b5050505050908060050154908060060160009054906101000a900460ff16905087565b6000600560008473ffffffffffffffffffffffffffffffffffffffff1673ffffffffffffffffffffffffffffffffffffffff16815260200190815260200160002060008373ffffffffffffffffffffffffffffffffffffffff1673ffffffffffffffffffffffffffffffffffffffff16815260200190815260200160002060009054906101000a900460ff16905092915050565b60606000611d996008612156565b905060008167ffffffffffffffff811115611db757611db661366f565b5b604051908082528060200260200182016040528015611df057816020015b611ddd6130eb565b815260200190600190039081611dd55790505b50905060005b82811015611f5f5760096000600183611e0f9190613e08565b81526020019081526020016000206040518060a0016040529081600082015481526020016001820160009054906101000a900473ffffffffffffffffffffffffffffffffffffffff1673ffffffffffffffffffffffffffffffffffffffff1673ffffffffffffffffffffffffffffffffffffffff168152602001600282018054611e9890613c83565b80601f0160208091040260200160405190810160405280929190818152602001828054611ec490613c83565b8015611f115780601f10611ee657610100808354040283529160200191611f11565b820191906000526020600020905b815481529060010190602001808311611ef457829003601f168201915b5050505050815260200160038201548152602001600482015481525050828281518110611f4157611f40614094565b5b60200260200101819052508080611f57906140c3565b915050611df6565b50809250505090565b60007f80ac58cd000000000000000000000000000000000000000000000000000000007bffffffffffffffffffffffffffffffffffffffffffffffffffffffff1916827bffffffffffffffffffffffffffffffffffffffffffffffffffffffff1916148061203357507f5b5e139f000000000000000000000000000000000000000000000000000000007bffffffffffffffffffffffffffffffffffffffffffffffffffffffff1916827bffffffffffffffffffffffffffffffffffffffffffffffffffffffff1916145b80612043575061204282612b48565b5b9050919050565b61205381612bb2565b612092576040517f08c379a000000000000000000000000000000000000000000000000000000000815260040161208990613f82565b60405180910390fd5b50565b600033905090565b816004600083815260200190815260200160002060006101000a81548173ffffffffffffffffffffffffffffffffffffffff021916908373ffffffffffffffffffffffffffffffffffffffff160217905550808273ffffffffffffffffffffffffffffffffffffffff1661211083610f45565b73ffffffffffffffffffffffffffffffffffffffff167f8c5be1e5ebec7d5bd14f71427d1e84f3dd0314c0f7b2291e5b200ac8c7c3b92560405160405180910390a45050565b600081600001549050919050565b600073ffffffffffffffffffffffffffffffffffffffff168273ffffffffffffffffffffffffffffffffffffffff1614156121d4576040517f08c379a00000000000000000000000000000000000000000000000000000000081526004016121cb90614158565b60405180910390fd5b6121dd81612bb2565b1561221d576040517f08c379a0000000000000000000000000000000000000000000000000000000008152600401612214906141c4565b60405180910390fd5b61222b600083836001612bf3565b61223481612bb2565b15612274576040517f08c379a000000000000000000000000000000000000000000000000000000000815260040161226b906141c4565b60405180910390fd5b6001600360008473ffffffffffffffffffffffffffffffffffffffff1673ffffffffffffffffffffffffffffffffffffffff16815260200190815260200160002060008282540192505081905550816002600083815260200190815260200160002060006101000a81548173ffffffffffffffffffffffffffffffffffffffff021916908373ffffffffffffffffffffffffffffffffffffffff160217905550808273ffffffffffffffffffffffffffffffffffffffff16600073ffffffffffffffffffffffffffffffffffffffff167fddf252ad1be2c89b69c2b068fc378daa952ba7f163c4a11628f55a4df523b3ef60405160405180910390a461237e600083836001612bf9565b5050565b61238b82612bb2565b6123ca576040517f08c379a00000000000000000000000000000000000000000000000000000000081526004016123c190614256565b60405180910390fd5b806006600084815260200190815260200160002090805190602001906123f1929190612fe4565b507ff8e1a15aba9398e019f0b49df1a4fde98ee17ae345cb5f6b5e2c27f5033e8ce7826040516124219190613411565b60405180910390a15050565b60008061243a6008612156565b905060005b818110156124e6578373ffffffffffffffffffffffffffffffffffffffff166009600060018461246f9190613e08565b815260200190815260200160002060010160009054906101000a900473ffffffffffffffffffffffffffffffffffffffff1673ffffffffffffffffffffffffffffffffffffffff1614156124d3576001816124ca9190613e08565b925050506124ed565b80806124de906140c3565b91505061243f565b5060009150505b919050565b6000806124fe83610f45565b90508073ffffffffffffffffffffffffffffffffffffffff168473ffffffffffffffffffffffffffffffffffffffff161480612540575061253f8185611cf7565b5b8061257e57508373ffffffffffffffffffffffffffffffffffffffff166125668461065e565b73ffffffffffffffffffffffffffffffffffffffff16145b91505092915050565b8273ffffffffffffffffffffffffffffffffffffffff166125a782610f45565b73ffffffffffffffffffffffffffffffffffffffff16146125fd576040517f08c379a00000000000000000000000000000000000000000000000000000000081526004016125f4906142e8565b60405180910390fd5b600073ffffffffffffffffffffffffffffffffffffffff168273ffffffffffffffffffffffffffffffffffffffff16141561266d576040517f08c379a00000000000000000000000000000000000000000000000000000000081526004016126649061437a565b60405180910390fd5b61267a8383836001612bf3565b8273ffffffffffffffffffffffffffffffffffffffff1661269a82610f45565b73ffffffffffffffffffffffffffffffffffffffff16146126f0576040517f08c379a00000000000000000000000000000000000000000000000000000000081526004016126e7906142e8565b60405180910390fd5b6004600082815260200190815260200160002060006101000a81549073ffffffffffffffffffffffffffffffffffffffff02191690556001600360008573ffffffffffffffffffffffffffffffffffffffff1673ffffffffffffffffffffffffffffffffffffffff168152602001908152602001600020600082825403925050819055506001600360008473ffffffffffffffffffffffffffffffffffffffff1673ffffffffffffffffffffffffffffffffffffffff16815260200190815260200160002060008282540192505081905550816002600083815260200190815260200160002060006101000a81548173ffffffffffffffffffffffffffffffffffffffff021916908373ffffffffffffffffffffffffffffffffffffffff160217905550808273ffffffffffffffffffffffffffffffffffffffff168473ffffffffffffffffffffffffffffffffffffffff167fddf252ad1be2c89b69c2b068fc378daa952ba7f163c4a11628f55a4df523b3ef60405160405180910390a461287c8383836001612bf9565b505050565b6001816000016000828254019250508190555050565b60006002600083815260200190815260200160002060009054906101000a900473ffffffffffffffffffffffffffffffffffffffff169050919050565b600081836128e2919061439a565b905092915050565b600081836128f89190614423565b905092915050565b8173ffffffffffffffffffffffffffffffffffffffff168373ffffffffffffffffffffffffffffffffffffffff16141561296f576040517f08c379a0000000000000000000000000000000000000000000000000000000008152600401612966906144a0565b60405180910390fd5b80600560008573ffffffffffffffffffffffffffffffffffffffff1673ffffffffffffffffffffffffffffffffffffffff16815260200190815260200160002060008473ffffffffffffffffffffffffffffffffffffffff1673ffffffffffffffffffffffffffffffffffffffff16815260200190815260200160002060006101000a81548160ff0219169083151502179055508173ffffffffffffffffffffffffffffffffffffffff168373ffffffffffffffffffffffffffffffffffffffff167f17307eab39ab6107e8899845ad3d59bd9653f200f220920489ca2b5937696c3183604051612a609190613201565b60405180910390a3505050565b612a78848484612587565b612a8484848484612bff565b612ac3576040517f08c379a0000000000000000000000000000000000000000000000000000000008152600401612aba90614532565b60405180910390fd5b50505050565b606060405180602001604052806000815250905090565b6060612aeb8261204a565b6000612af5612ac9565b90506000815111612b155760405180602001604052806000815250612b40565b80612b1f84612d96565b604051602001612b30929190614070565b6040516020818303038152906040525b915050919050565b60007f01ffc9a7000000000000000000000000000000000000000000000000000000007bffffffffffffffffffffffffffffffffffffffffffffffffffffffff1916827bffffffffffffffffffffffffffffffffffffffffffffffffffffffff1916149050919050565b60008073ffffffffffffffffffffffffffffffffffffffff16612bd483612897565b73ffffffffffffffffffffffffffffffffffffffff1614159050919050565b50505050565b50505050565b6000612c208473ffffffffffffffffffffffffffffffffffffffff16612e6e565b15612d89578373ffffffffffffffffffffffffffffffffffffffff1663150b7a02612c49612095565b8786866040518563ffffffff1660e01b8152600401612c6b94939291906145a7565b602060405180830381600087803b158015612c8557600080fd5b505af1925050508015612cb657506040513d601f19601f82011682018060405250810190612cb39190614608565b60015b612d39573d8060008114612ce6576040519150601f19603f3d011682016040523d82523d6000602084013e612ceb565b606091505b50600081511415612d31576040517f08c379a0000000000000000000000000000000000000000000000000000000008152600401612d2890614532565b60405180910390fd5b805181602001fd5b63150b7a0260e01b7bffffffffffffffffffffffffffffffffffffffffffffffffffffffff1916817bffffffffffffffffffffffffffffffffffffffffffffffffffffffff191614915050612d8e565b600190505b949350505050565b606060006001612da584612e91565b01905060008167ffffffffffffffff811115612dc457612dc361366f565b5b6040519080825280601f01601f191660200182016040528015612df65781602001600182028036833780820191505090505b509050600082602001820190505b600115612e63578080600190039150507f3031323334353637383961626364656600000000000000000000000000000000600a86061a8153600a8581612e4d57612e4c6143f4565b5b0494506000851415612e5e57612e63565b612e04565b819350505050919050565b6000808273ffffffffffffffffffffffffffffffffffffffff163b119050919050565b600080600090507a184f03e93ff9f4daa797ed6e38ed64bf6a1f0100000000000000008310612eef577a184f03e93ff9f4daa797ed6e38ed64bf6a1f0100000000000000008381612ee557612ee46143f4565b5b0492506040810190505b6d04ee2d6d415b85acef81000000008310612f2c576d04ee2d6d415b85acef81000000008381612f2257612f216143f4565b5b0492506020810190505b662386f26fc100008310612f5b57662386f26fc100008381612f5157612f506143f4565b5b0492506010810190505b6305f5e1008310612f84576305f5e1008381612f7a57612f796143f4565b5b0492506008810190505b6127108310612fa9576127108381612f9f57612f9e6143f4565b5b0492506004810190505b60648310612fcc5760648381612fc257612fc16143f4565b5b0492506002810190505b600a8310612fdb576001810190505b80915050919050565b828054612ff090613c83565b90600052602060002090601f0160209004810192826130125760008555613059565b82601f1061302b57805160ff1916838001178555613059565b82800160010185558215613059579182015b8281111561305857825182559160200191906001019061303d565b5b5090506130669190613130565b5090565b6040518060e0016040528060008152602001600073ffffffffffffffffffffffffffffffffffffffff168152602001600073ffffffffffffffffffffffffffffffffffffffff168152602001600073ffffffffffffffffffffffffffffffffffffffff16815260200160608152602001600081526020016000151581525090565b6040518060a0016040528060008152602001600073ffffffffffffffffffffffffffffffffffffffff1681526020016060815260200160008152602001600081525090565b5b80821115613149576000816000905550600101613131565b5090565b6000604051905090565b600080fd5b600080fd5b60007fffffffff0000000000000000000000000000000000000000000000000000000082169050919050565b61319681613161565b81146131a157600080fd5b50565b6000813590506131b38161318d565b92915050565b6000602082840312156131cf576131ce613157565b5b60006131dd848285016131a4565b91505092915050565b60008115159050919050565b6131fb816131e6565b82525050565b600060208201905061321660008301846131f2565b92915050565b600081519050919050565b600082825260208201905092915050565b60005b8381101561325657808201518184015260208101905061323b565b83811115613265576000848401525b50505050565b6000601f19601f8301169050919050565b60006132878261321c565b6132918185613227565b93506132a1818560208601613238565b6132aa8161326b565b840191505092915050565b600060208201905081810360008301526132cf818461327c565b905092915050565b6000819050919050565b6132ea816132d7565b81146132f557600080fd5b50565b600081359050613307816132e1565b92915050565b60006020828403121561332357613322613157565b5b6000613331848285016132f8565b91505092915050565b600073ffffffffffffffffffffffffffffffffffffffff82169050919050565b60006133658261333a565b9050919050565b6133758161335a565b82525050565b6000602082019050613390600083018461336c565b92915050565b61339f8161335a565b81146133aa57600080fd5b50565b6000813590506133bc81613396565b92915050565b600080604083850312156133d9576133d8613157565b5b60006133e7858286016133ad565b92505060206133f8858286016132f8565b9150509250929050565b61340b816132d7565b82525050565b60006020820190506134266000830184613402565b92915050565b60008060006060848603121561344557613444613157565b5b6000613453868287016133ad565b9350506020613464868287016133ad565b9250506040613475868287016132f8565b9150509250925092565b600080fd5b600080fd5b600080fd5b60008083601f8401126134a4576134a361347f565b5b8235905067ffffffffffffffff8111156134c1576134c0613484565b5b6020830191508360018202830111156134dd576134dc613489565b5b9250929050565b6000806000604084860312156134fd576134fc613157565b5b600084013567ffffffffffffffff81111561351b5761351a61315c565b5b6135278682870161348e565b9350935050602061353a868287016132f8565b9150509250925092565b60006020828403121561355a57613559613157565b5b6000613568848285016133ad565b91505092915050565b61357a816131e6565b811461358557600080fd5b50565b60008135905061359781613571565b92915050565b600080604083850312156135b4576135b3613157565b5b60006135c2858286016133ad565b92505060206135d385828601613588565b9150509250929050565b600080602083850312156135f4576135f3613157565b5b600083013567ffffffffffffffff8111156136125761361161315c565b5b61361e8582860161348e565b92509250509250929050565b6000806040838503121561364157613640613157565b5b600061364f858286016132f8565b9250506020613660858286016132f8565b9150509250929050565b600080fd5b7f4e487b7100000000000000000000000000000000000000000000000000000000600052604160045260246000fd5b6136a78261326b565b810181811067ffffffffffffffff821117156136c6576136c561366f565b5b80604052505050565b60006136d961314d565b90506136e5828261369e565b919050565b600067ffffffffffffffff8211156137055761370461366f565b5b61370e8261326b565b9050602081019050919050565b82818337600083830152505050565b600061373d613738846136ea565b6136cf565b9050828152602081018484840111156137595761375861366a565b5b61376484828561371b565b509392505050565b600082601f8301126137815761378061347f565b5b813561379184826020860161372a565b91505092915050565b600080600080608085870312156137b4576137b3613157565b5b60006137c2878288016133ad565b94505060206137d3878288016133ad565b93505060406137e4878288016132f8565b925050606085013567ffffffffffffffff8111156138055761380461315c565b5b6138118782880161376c565b91505092959194509250565b600081519050919050565b600082825260208201905092915050565b6000819050602082019050919050565b613852816132d7565b82525050565b60006138638261333a565b9050919050565b61387381613858565b82525050565b600082825260208201905092915050565b60006138958261321c565b61389f8185613879565b93506138af818560208601613238565b6138b88161326b565b840191505092915050565b6138cc816131e6565b82525050565b600060e0830160008301516138ea6000860182613849565b5060208301516138fd602086018261386a565b506040830151613910604086018261386a565b506060830151613923606086018261386a565b506080830151848203608086015261393b828261388a565b91505060a083015161395060a0860182613849565b5060c083015161396360c08601826138c3565b508091505092915050565b600061397a83836138d2565b905092915050565b6000602082019050919050565b600061399a8261381d565b6139a48185613828565b9350836020820285016139b685613839565b8060005b858110156139f257848403895281516139d3858261396e565b94506139de83613982565b925060208a019950506001810190506139ba565b50829750879550505050505092915050565b60006020820190508181036000830152613a1e818461398f565b905092915050565b613a2f81613858565b82525050565b600060e082019050613a4a600083018a613402565b613a576020830189613a26565b613a646040830188613a26565b613a716060830187613a26565b8181036080830152613a83818661327c565b9050613a9260a0830185613402565b613a9f60c08301846131f2565b98975050505050505050565b60008060408385031215613ac257613ac1613157565b5b6000613ad0858286016133ad565b9250506020613ae1858286016133ad565b9150509250929050565b600081519050919050565b600082825260208201905092915050565b6000819050602082019050919050565b613b208161335a565b82525050565b600060a083016000830151613b3e6000860182613849565b506020830151613b516020860182613b17565b5060408301518482036040860152613b69828261388a565b9150506060830151613b7e6060860182613849565b506080830151613b916080860182613849565b508091505092915050565b6000613ba88383613b26565b905092915050565b6000602082019050919050565b6000613bc882613aeb565b613bd28185613af6565b935083602082028501613be485613b07565b8060005b85811015613c205784840389528151613c018582613b9c565b9450613c0c83613bb0565b925060208a01995050600181019050613be8565b50829750879550505050505092915050565b60006020820190508181036000830152613c4c8184613bbd565b905092915050565b7f4e487b7100000000000000000000000000000000000000000000000000000000600052602260045260246000fd5b60006002820490506001821680613c9b57607f821691505b60208210811415613caf57613cae613c54565b5b50919050565b7f4552433732313a20617070726f76616c20746f2063757272656e74206f776e6560008201527f7200000000000000000000000000000000000000000000000000000000000000602082015250565b6000613d11602183613227565b9150613d1c82613cb5565b604082019050919050565b60006020820190508181036000830152613d4081613d04565b9050919050565b7f4552433732313a20617070726f76652063616c6c6572206973206e6f7420746f60008201527f6b656e206f776e6572206f7220617070726f76656420666f7220616c6c000000602082015250565b6000613da3603d83613227565b9150613dae82613d47565b604082019050919050565b60006020820190508181036000830152613dd281613d96565b9050919050565b7f4e487b7100000000000000000000000000000000000000000000000000000000600052601160045260246000fd5b6000613e13826132d7565b9150613e1e836132d7565b9250827fffffffffffffffffffffffffffffffffffffffffffffffffffffffffffffffff03821115613e5357613e52613dd9565b5b828201905092915050565b7f4552433732313a2063616c6c6572206973206e6f7420746f6b656e206f776e6560008201527f72206f7220617070726f76656400000000000000000000000000000000000000602082015250565b6000613eba602d83613227565b9150613ec582613e5e565b604082019050919050565b60006020820190508181036000830152613ee981613ead565b9050919050565b600081905092915050565b50565b6000613f0b600083613ef0565b9150613f1682613efb565b600082019050919050565b6000613f2c82613efe565b9150819050919050565b7f4552433732313a20696e76616c696420746f6b656e2049440000000000000000600082015250565b6000613f6c601883613227565b9150613f7782613f36565b602082019050919050565b60006020820190508181036000830152613f9b81613f5f565b9050919050565b7f4552433732313a2061646472657373207a65726f206973206e6f74206120766160008201527f6c6964206f776e65720000000000000000000000000000000000000000000000602082015250565b6000613ffe602983613227565b915061400982613fa2565b604082019050919050565b6000602082019050818103600083015261402d81613ff1565b9050919050565b600081905092915050565b600061404a8261321c565b6140548185614034565b9350614064818560208601613238565b80840191505092915050565b600061407c828561403f565b9150614088828461403f565b91508190509392505050565b7f4e487b7100000000000000000000000000000000000000000000000000000000600052603260045260246000fd5b60006140ce826132d7565b91507fffffffffffffffffffffffffffffffffffffffffffffffffffffffffffffffff82141561410157614100613dd9565b5b600182019050919050565b7f4552433732313a206d696e7420746f20746865207a65726f2061646472657373600082015250565b6000614142602083613227565b915061414d8261410c565b602082019050919050565b6000602082019050818103600083015261417181614135565b9050919050565b7f4552433732313a20746f6b656e20616c7265616479206d696e74656400000000600082015250565b60006141ae601c83613227565b91506141b982614178565b602082019050919050565b600060208201905081810360008301526141dd816141a1565b9050919050565b7f45524337323155524953746f726167653a2055524920736574206f66206e6f6e60008201527f6578697374656e7420746f6b656e000000000000000000000000000000000000602082015250565b6000614240602e83613227565b915061424b826141e4565b604082019050919050565b6000602082019050818103600083015261426f81614233565b9050919050565b7f4552433732313a207472616e736665722066726f6d20696e636f72726563742060008201527f6f776e6572000000000000000000000000000000000000000000000000000000602082015250565b60006142d2602583613227565b91506142dd82614276565b604082019050919050565b60006020820190508181036000830152614301816142c5565b9050919050565b7f4552433732313a207472616e7366657220746f20746865207a65726f2061646460008201527f7265737300000000000000000000000000000000000000000000000000000000602082015250565b6000614364602483613227565b915061436f82614308565b604082019050919050565b6000602082019050818103600083015261439381614357565b9050919050565b60006143a5826132d7565b91506143b0836132d7565b9250817fffffffffffffffffffffffffffffffffffffffffffffffffffffffffffffffff04831182151516156143e9576143e8613dd9565b5b828202905092915050565b7f4e487b7100000000000000000000000000000000000000000000000000000000600052601260045260246000fd5b600061442e826132d7565b9150614439836132d7565b925082614449576144486143f4565b5b828204905092915050565b7f4552433732313a20617070726f766520746f2063616c6c657200000000000000600082015250565b600061448a601983613227565b915061449582614454565b602082019050919050565b600060208201905081810360008301526144b98161447d565b9050919050565b7f4552433732313a207472616e7366657220746f206e6f6e20455243373231526560008201527f63656976657220696d706c656d656e7465720000000000000000000000000000602082015250565b600061451c603283613227565b9150614527826144c0565b604082019050919050565b6000602082019050818103600083015261454b8161450f565b9050919050565b600081519050919050565b600082825260208201905092915050565b600061457982614552565b614583818561455d565b9350614593818560208601613238565b61459c8161326b565b840191505092915050565b60006080820190506145bc600083018761336c565b6145c9602083018661336c565b6145d66040830185613402565b81810360608301526145e8818461456e565b905095945050505050565b6000815190506146028161318d565b92915050565b60006020828403121561461e5761461d613157565b5b600061462c848285016145f3565b9150509291505056fea2646970667358221220939e25fbc5a131ffad5a2619064875c4c519add11ff7eeac6431bbe02a80b3af64736f6c63430008090033",
    "linkReferences": {},
    "deployedLinkReferences": {}
}